:100000000C9481000C94A9000C94A9000C941B0C76
:100010000C941B0C0C941B0C0C94A9000C94A900C0
:100020000C94A9000C94A9000C94A9000C94A900AC
:100030000C94A9000C94A9000C94A9000C94A9009C
:100040000C94D10B0C94A9000C949F0B0C94790B7D
:100050000C94A9000C94A9000C94A9000C94A9007C
:100060000C94A9000C94A9004E414E494E49545994
:10007000494E46CDCCCC3D0AD7233C17B7D1387773
:10008000CC2B329595E6241FB14F0A000020410089
:1000900000C84200401C4620BCBE4CCA1B0E5AAED3
:1000A000C59D7400000000240027002A0000000005
:1000B0000800020100000304070000000000000027
:1000C0000000000000230026002900000000002599
:1000D0000028002B000404040404040404020202A7
:1000E0000202020303030303030102040810204079
:1000F0008001020408102001020408102000930C63
:10010000081011241FBECFEFD8E0DEBFCDBF24E022
:10011000A2E6B3E001C01D92A73CB207E1F713E0ED
:10012000A0E0B1E0E4EFFCE202C005900D92A2363F
:10013000B107D9F710E0C0E8D0E004C02197FE0174
:100140000E947514CF37D107C9F70E94F50C0C94A3
:100150006D160C94000020916304309164048217A2
:10016000930738F420915F04309160042115310524
:1001700029F41092C10381EC93E00895820F931F3C
:100180000895DC01ED91FC910190F081E02D09943E
:10019000DB0114964D915C9115976D917C91DC017A
:1001A000ED91FC910280F381E02D0994AF92BF9212
:1001B000CF92DF92EF92FF920F931F93CF93DF9333
:1001C0006C017B018B01040F151FEB015E01AE1862
:1001D000BF08C017D10759F06991D601ED91FC9184
:1001E0000190F081E02DC6010995892B79F7C501B1
:1001F000DF91CF911F910F91FF90EF90DF90CF9003
:10020000BF90AF900895FC01538D448D252F30E0B1
:10021000842F90E0821B930B541710F0CF96089513
:1002200001970895FC01918D828D981761F0A28D40
:10023000AE0FBF2FB11D5D968C91928D9F5F9F7306
:10024000928F90E008958FEF9FEF0895FC01918DBC
:10025000828D981731F0828DE80FF11D858D90E029
:1002600008958FEF9FEF0895FC01918D228D892FC6
:1002700090E0805C9F4F821B91098F7399270895AE
:1002800082EC93E00E94340121E0892B09F420E004
:10029000822F089580E090E0892B29F00E94400190
:1002A00081110C9400000895FC01A48DA80FB92FB2
:1002B000B11DA35ABF4F2C91848D90E001968F738E
:1002C0009927848FA689B7892C93A089B1898C91AD
:1002D000837080648C93938D848D981306C00288FC
:1002E000F389E02D80818F7D80830895EF92FF92C6
:1002F0000F931F93CF93DF93EC0181E0888F9B8D49
:100300008C8D98131AC0E889F989808185FF15C002
:100310009FB7F894EE89FF896083E889F989808125
:100320008370806480839FBF81E090E0DF91CF91F4
:100330001F910F91FF90EF900895F62E0B8D10E016
:100340000F5F1F4F0F731127E02E8C8D8E110CC085
:100350000FB607FCFACFE889F989808185FFF5CFD0
:10036000CE010E945401F1CFEB8DEC0FFD2FF11D5A
:10037000E35AFF4FF0829FB7F8940B8FEA89FB890D
:1003800080818062CFCFCF93DF93EC01888D88236B
:10039000B9F0AA89BB89E889F9898C9185FD03C0E8
:1003A000808186FD0DC00FB607FCF7CF8C9185FFCD
:1003B000F2CF808185FFEDCFCE010E945401E9CFBD
:1003C000DF91CF91089590E0FC01E355FF4F249118
:1003D000FC01E751FF4F3491FC01EB52FF4FE491D8
:1003E000EE23C9F0222339F0233001F1A8F42130A3
:1003F00019F1223029F1F0E0EE0FFF1FE553FF4F16
:10040000A591B4918FB7F894EC91611126C0309505
:100410003E233C938FBF08952730A9F02830C9F0C0
:10042000243049F7809180008F7D03C08091800047
:100430008F7780938000DFCF84B58F7784BDDBCF4B
:1004400084B58F7DFBCF8091B0008F778093B00013
:10045000D2CF8091B0008F7DF9CF3E2BDACFCF93F2
:10046000DF9390E0FC01E751FF4F24918B529F4FA7
:10047000FC0184918823D1F090E0880F991FFC0142
:10048000ED55FF4FA591B491FC01E553FF4FC59188
:10049000D49161110EC09FB7F8948C91E22FE09532
:1004A0008E238C932881E223E8839FBFDF91CF9135
:1004B00008958FB7F894EC91E22BEC938FBFF6CFB1
:1004C0000F931F93CF93DF93EC01162F042F1B8202
:1004D0001A8288EE93E0A0E0B0E08C839D83AE8327
:1004E000BF838AE091E0998388831F8A1E8A198ED0
:1004F000188E1B8E1A8E1D8E1C8E6E8D6E7F6D7FDC
:100500006E8F6695617081E06827842F0E94E301F9
:1005100061E0802F0E942F02802F90E0FC01E751C4
:10052000FF4FE491E88BFC01EB52FF4FE491F0E0C8
:10053000EE0FFF1FE553FF4F859194919A8B898BA6
:1005400060E0812F0E942F028E8D81FD04C061E04A
:10055000812F0E94E3011C87812F90E0FC01E7516D
:10056000FF4FE491ED87FC01EB52FF4FE491F0E087
:10057000EE0FFF1FEF53FF4F859194919F878E875A
:10058000DF91CF911F910F9108958E5080648093D9
:100590007C0080917A00806480937A0080917A0058
:1005A00086FDFCCF809178009091790008953FB747
:1005B000F8948091A7039091A803A091A903B0910A
:1005C000AA0326B5A89B05C02F3F19F00196A11DCF
:1005D000B11D3FBFBA2FA92F982F8827BC01CD018D
:1005E000620F711D811D911D42E0660F771F881FEC
:1005F000991F4A95D1F708958F929F92AF92BF921B
:10060000CF92DF92EF92FF926B017C010E94D702A2
:100610004B015C01C114D104E104F104B9F00E9462
:10062000D702681979098A099B09683E73408105D8
:10063000910580F321E0C21AD108E108F10888EEA3
:10064000880E83E0981EA11CB11CE4CFFF90EF90B0
:10065000DF90CF90BF90AF909F908F9008950895B6
:100660002091BB033091BC032817390771F4909196
:10067000B9038091BA03981741F0E091B903F0E013
:10068000EA59FC4F808190E008958FEF9FEF089525
:100690000895EF92FF920F931F93CF93DF93DC01A6
:1006A0005C96ED90FC905D97E114F10479F481E0A3
:1006B00090E013969C938E93129790E080E0DF91E8
:1006C000CF911F910F91FF90EF9008955196ED916A
:1006D000FC91529750968C915097982F90950FB708
:1006E0005E962C915E97122F127021FD6095F89402
:1006F0002081112319F1282B2083E7012197F1F79D
:1007000028E0462F50E0308160FF1AC0382B30833C
:10071000E7012197F1F7BA0175956795215089F79F
:10072000112381F08081892380830FBF5C968D9196
:100730009C910197F1F781E090E0C1CF2923DCCFB4
:100740003923E5CF9081892BEFCF2091BB033091E6
:10075000BC032817390761F48091BA032091B903CB
:1007600090E0805C9F4F821B91098F7399270895B9
:1007700090E080E008952091BB033091BC032817DE
:100780003907B9F49091B9038091BA03981789F0A9
:10079000E091B903F0E0EA59FC4F80812091B90360
:1007A00030E02F5F3F4F2F7333272093B90390E042
:1007B00008958FEF9FEF0895E091BB03F091BC0384
:1007C000E817F90769F4A389B4899C918589809514
:1007D00089238C931092BC031092BB0381E008958F
:1007E00080E00895CF93DF93EC011B8E1A8E198E53
:1007F000188E1F8A1E8A8DE991E09D8F8C8F8C85C3
:100800008631E0F52DEB30E03F8B2E8B2BE931E08C
:10081000398F288F2CE231E03B8F2A8F909168002E
:10082000883008F44EC021E08E3008F420E081E0EA
:1008300001C0880F2A95EAF7892B809368009C8570
:100840002DE630E0983050F02BE630E09E3030F06E
:100850002CE630E0963110F030E020E03C8B2B8B22
:10086000292F30E0983078F581E001C0880F9A9503
:10087000EAF78D8B8C8D9D8D0197F1F78A8D9B8D7D
:10088000892BE1F08091BB039091BC03C817D90775
:10089000A9F0009711F00E94DC038E8D8E7F8E8F61
:1008A0001092BA031092B903D093BC03C093BB0358
:1008B000EB89FC8980819D89892B8083DF91CF9191
:1008C000089584E0B9CF9E3040F42850310981E08A
:1008D00001C0880F2A95EAF7CCCF2E503109F7CF07
:1008E00090E080E00895CF93DF93EC0160E08E818B
:1008F0000E94E30161E08E810E94E30160E08E814D
:100900000E94E3018BE891E00197F1F7DF91CF912D
:100910000895CF92DF92EF92FF920F931F93CF93A0
:10092000DF936C017C0187E0E80EF11CD0E0C0E0B1
:10093000062F10E0B8010C2E02C0759567950A9439
:10094000E2F76170F70181917F010E94E301219636
:10095000C430D10579F7C601DF91CF911F910F9176
:10096000FF90EF90DF90CF900C947304CF92DF92C2
:10097000EF92FF920F931F93CF93DF93EC01F62E2C
:10098000642F8C810E94E3018D818F3F19F060E01C
:100990000E94E3010F2D10E08F8584FF25C06E01BA
:1009A00087E0C80ED11CF12CE12CB8010E2C02C03E
:1009B000759567950A94E2F76170F60181916F0170
:1009C0000E94E301FFEFEF1AFF0A88E0E816F10446
:1009D00061F7CE01DF91CF911F910F91FF90EF90C2
:1009E000DF90CF900C947304B80184E075956795FF
:1009F0008A95E1F7CE010E9489046F2DCE01DF9127
:100A0000CF911F910F91FF90EF90DF90CF900C94BA
:100A1000890440E0682F8BE694E00C94B60481E0F2
:100A20000E9409058BE39FE10197F1F70895CF93A9
:100A3000DF93823029F490917A04986090937A043D
:100A400080937E0410927F0480E48093800480E190
:100A50008093810480E58093820461E080916F043B
:100A60000E942F02809170048F3F19F061E00E9474
:100A70002F0261E0809171040E942F02CBE6D4E046
:100A80009E012B56344080917A0484FD0BC084E093
:100A900090E021962817390744F461E08E810E9486
:100AA0002F02EECF88E090E0F4CF8BE39DE001973A
:100AB000F1F760E080916F040E94E30160E08091B3
:100AC00071040E94E301809170048F3F19F060E08F
:100AD0000E94E30180917A0484FD34C063E08BE6D8
:100AE00094E00E948904CBE4D6E4CE010197F1F7AB
:100AF00063E08BE694E00E9489042197F1F763E0BC
:100B00008BE694E00E94890483E592E00197F1F777
:100B100062E08BE694E00E94890480917A0480620E
:100B20000E94090584E080937B048CE00E94090503
:100B30000E940F0582E080937C0486E0DF91CF91D4
:100B40000C94090580620E9409058BE496E40197E4
:100B5000F1F780917A0480620E94090583E592E0B2
:100B60000197F1F780917A0480620E940905D5CF40
:100B7000E0917E04E23040F4E150F0E0E559FB4FB3
:100B8000848980680C940905E1E0F7CF41E00E9478
:100B9000B60481E090E00895FB0101900020E9F7A0
:100BA0003197AF01461B570BDC01ED91FC910280A0
:100BB000F381E02D09948F929F92AF92BF92EF92B2
:100BC000FF920F931F93CF93DF93CDB7DEB7A1971B
:100BD0000FB6F894DEBF0FBECDBF7C01FA01CB018A
:100BE00019A2223008F42AE08E010F5D1F4F822ED9
:100BF000912CB12CA12CBF01A50194010E943F149E
:100C0000F901CA016A300CF5605DD8016E938D015F
:100C1000232B242B252B79F790E080E0109721F0EF
:100C2000BD01C7010E94CC05A1960FB6F894DEBFA6
:100C30000FBECDBFDF91CF911F910F91FF90EF902D
:100C4000BF90AF909F908F900895695CDECFCF9258
:100C5000DF92EF92FF92CF93DF936C01990FEE0832
:100C6000FF08F7FE23C06DE282EC93E00E94C10012
:100C7000EC0144275527BA014C195D096E097F091B
:100C80002AE082EC93E00E94DB05C80FD91F66E3DF
:100C900071E082EC93E00E94CC058C0F9D1FDF91E8
:100CA000CF91FF90EF90DF90CF9008952AE0B701A9
:100CB000A60182EC93E00E94DB05EC01E8CFCF9225
:100CC000DF92EF92FF9282EA94E00E94A503181649
:100CD0001906FCF482EA94E00E94BB036C01990FB0
:100CE000EE08FF082AE0B701A601F7FE0DC06DE28D
:100CF00082EC93E00E94C10044275527BA014C19A9
:100D00005D096E097F092AE082EC93E00E94DB0511
:100D1000DACFFF90EF90DF90CF9008952F923F921F
:100D20004F925F926F927F928F929F92AF92BF92FB
:100D3000CF92DF92EF92FF921F93CF93DF93EC015C
:100D40006A017B01722EAB019601CB01B6010E94B4
:100D5000261469E371E0811126C046015701E89429
:100D6000B7F82FEF3FEF4FE75FE7C501B4010E94EF
:100D7000261481110CC02FEF3FEF4FE75FE7C5014D
:100D8000B4010E949B116DE371E0181664F02FEF1F
:100D90003FEF4FE75FE4C701B6010E942114181628
:100DA000B4F461E471E0CE01DF91CF911F91FF9027
:100DB000EF90DF90CF90BF90AF909F908F907F90FB
:100DC0006F905F904F903F902F900C94CC052FEF39
:100DD0003FEF4FE75FECC701B6010E949B1187FD13
:100DE000E0CF20E030E0A901C701B6010E949B11CD
:100DF000312C212C87FF09C06DE2CE010E94C10079
:100E00001C01F7FAF094F7F8F09410E060E070E05D
:100E100080E09FE3711641F020E030E040E251E4D1
:100E20000E9480131F5FF6CFA70196010E94141342
:100E30002B013C010E94F2134B015C012AE0BC0132
:100E4000A401CE010E94DB057C01E20CF31C1123FE
:100E5000C1F1C501B4010E94A0119B01AC01C30105
:100E6000B2010E9413134B015C016EE2CE010E949D
:100E7000C100E80EF91E115020F120E030E040E200
:100E800051E4C501B4010E9401122B013C010E94F2
:100E9000F2134B01B12CA12C2AE0B501A401CE0123
:100EA0000E94DB05E80EF91EC501B4010E94A011E5
:100EB0009B01AC01C301B2010E9413134B015C0101
:100EC000DACFC701DF91CF911F91FF90EF90DF90B4
:100ED000CF90BF90AF909F908F907F906F905F90DA
:100EE0004F903F902F9008950F931F93CF93DF93D0
:100EF000EC0122E00E948E068C0166E371E0CE01D7
:100F00000E94CC05800F911FDF91CF911F910F910F
:100F100008950F931F93CF93DF93EC010E94CC05AC
:100F20008C0166E371E0CE010E94CC05800F911F19
:100F3000DF91CF911F910F9108950F931F93CF933E
:100F4000DF93EC010E94C8008C0166E371E0CE01E2
:100F50000E94CC05800F911FDF91CF911F910F91BF
:100F600008956F927F928F929F92AF92BF92CF928D
:100F7000DF92EF92FF920F931F93CF93DF936C0159
:100F80007B01B60182EC93E00E949D07B60182EAE4
:100F900094E00E949D0764E670E080E090E00E948B
:100FA000FC0282EA94E00E94A503181619060CF0D0
:100FB0009BC0F70101900020E9F731978F010E19CE
:100FC0001F0909F05FC0B70182EC93E00E94890716
:100FD00068EE73E080E090E0DF91CF911F910F9178
:100FE000FF90EF90DF90CF90BF90AF909F908F9049
:100FF0007F906F900C94FC02C1E0D0E02FB7F89482
:101000008091BD039091BE03A091BF03B091C00336
:101010002FBF8093AA049093AB04A093AC04B09329
:10102000AD0482EA94E00E94BB0397FF64C02FB72F
:10103000F8948091BD039091BE03A091BF03B0913D
:10104000C0032FBF4091AA045091AB046091AC043F
:101050007091AD04841B950BA60BB70B4091A604B1
:101060005091A7046091A8047091A9048417950772
:10107000A607B707B0F265E471E082EC93E00E9446
:1010800089078FCFD0E0C0E0B9CF209709F4B6CF61
:101090003F01BC2EAD2E2197D3012E913D01022E92
:1010A000000C330B2817390719F0209791F7A6CFBA
:1010B000209709F4A1CFA701BF016C1B7D0B30E085
:1010C00020E0DA019D90AD01DB018D90BD0189101A
:1010D00005C02F5F3F4F2C173D0798F3C217D3076A
:1010E000C1F6CB2DDA2D8ACF68EE73E080E090E078
:1010F0000E94FC0246CFF701EC0FFD1F2081022E5B
:10110000000C330B8217930709F0BFCF21960C1701
:101110001D0709F073CF57CF0C94CC050E940F0523
:101120006BE471E08BE694E00E948C084091AF0381
:101130005091B0036091B1037091B20322E08BE64D
:1011400094E00E948E060E94B80560E571E08BE68F
:1011500094E00E948C084091AB035091AC036091E5
:10116000AD037091AE0322E08BE694E00E948E0600
:1011700065E571E082EC93E00E948C084091AF033A
:101180005091B0036091B1037091B20382EC93E08F
:101190000E9474076FE571E082EC93E00E948C0876
:1011A0004091AB035091AC036091AD037091AE03DD
:1011B00082EC93E00E9474076AE671E082EC93E0AF
:1011C0000E948C0865E674E082EC93E00E949D0723
:1011D00060ED77E080E090E00E94FC020E940F0545
:1011E0006AE871E08BE694E00E948C080E94B805E2
:1011F00065E674E08BE694E00C94C800FC01808105
:101200009181009711F00C9417150895FC018081CD
:101210009181009711F00C94261060E070E0CB01F2
:1012200008950F931F93CF93DF93EC0188819981E9
:10123000009759F02A813B812617370730F081E06B
:10124000DF91CF911F910F9108958B016F5F7F4FB9
:101250000E94A015009759F0998388831B830A8305
:101260002C813D81232B59F7FC011082E8CF80E0CF
:10127000E7CFCF93DF93EC0170E060E00E941109AB
:101280002881398181110FC02115310519F0C9015B
:101290000E941715198218821D821C821B821A82D5
:1012A000DF91CF9108951D821C8268E371E0C9012E
:1012B000DF91CF910C946616EF92FF920F931F93DC
:1012C000CF93DF9300D0CDB7DEB78C0169831A824C
:1012D000FC01E480F580FFEFEF1AFF0AB7010E94DE
:1012E0001109882381F0F801208131818481958161
:1012F000BE016F5F7F4F820F931F0E946616F80139
:10130000F582E48281E00F900F90DF91CF911F91E1
:101310000F91FF90EF900895EF92FF920F931F931C
:10132000CF93DF93EC017B01198218821B821A8212
:101330001D821C82FB0101900020E9F731978F018B
:10134000061B170BB8010E941109288139818111F0
:1013500013C02115310519F0C9010E941715198212
:1013600018821D821C821B821A82DF91CF911F91ED
:101370000F91FF90EF9008951D830C83B701C90171
:10138000DF91CF911F910F91FF90EF900C94661613
:101390002F923F924F925F926F927F928F929F9285
:1013A000AF92BF92CF92DF92EF92FF920F931F9373
:1013B000CF93DF93CDB7DEB768970FB6F894DEBF53
:1013C0000FBECDBF0E940F0567EA71E08BE694E087
:1013D0000E948C080E94B80568EB71E08BE694E0EF
:1013E0000E948C08109265031092640386E1282EF7
:1013F000312C00E210E093E2A92EB12C2DE2822ED6
:10140000912C8091640390916503892B09F058C158
:101410008FE594E00E94390983E894E00E94A503D7
:10142000181619060CF041C083E894E00E94BB0333
:10143000D82E682F8FE594E00E945C0980916203AA
:10144000909163037C012FEFE21AF20AF09263039A
:10145000E0926203E7E0EE16F104D4F40E94AB00E0
:10146000FC019081F701E853FE4F8081981781F0CD
:1014700010926303109262038FE594E00E94390991
:10148000FDE0DF12C9CF1092630310926203C4CF54
:101490002DE0D212C1CF8DE3E816F104A4F3E1E010
:1014A000F0E0F0936503E09364038091640390910E
:1014B0006503892B09F4B0CF68E371E0CE01439650
:1014C0000E948C0984E190E090936303809362030F
:1014D000E0906203F090630396E1E916F1048CF466
:1014E000C7010E94AB00FC016081CE0143960E94BF
:1014F0005C09FFEFEF1AFF0AF0926303E0926203C8
:10150000E7CF68E371E0CE010D960E948C0930921E
:10151000630320926203E0906203F09063032DE185
:10152000E216F1048CF4C7010E94AB00FC0160815B
:10153000CE010D960E945C09FFEFEF1AFF0AF092B0
:101540006303E0926203E7CF68E371E0CE010796A0
:101550000E948C091093630300936203E09062037E
:10156000F090630323E2E216F1048CF4C7010E94B9
:10157000AB00FC016081CE0107960E945C09FFEF81
:10158000EF1AFF0AF0926303E0926203E7CF68E389
:1015900071E0CE0101960E948C09B0926303A09283
:1015A0006203E0906203F09063032AE2E216F10422
:1015B0008CF4C7010E94AB00FC016081CE01019652
:1015C0000E945C09FFEFEF1AFF0AF0926303E092BA
:1015D0006203E7CF85E694E00E94390990926303A5
:1015E00080926203E0906203F090630320E3E216CE
:1015F000F1048CF4C7010E94AB00FC01608185E618
:1016000094E00E945C09FFEFEF1AFF0AF092630377
:10161000E0926203E7CFCE010D960E9406092B01EE
:101620003C01CE0143960E9406096B017C0120E03B
:1016300030E040E752E4C301B2010E948013A701E9
:1016400096010E9414136093AF037093B0038093CC
:10165000B1039093B203CE0101960E9406092B01BB
:101660003C01CE0107960E9406096B017C0120E037
:1016700030E040E752E4C301B2010E948013A701A9
:1016800096010E9414136093AB037093AC03809394
:10169000AD039093AE03CE0101960E94FE08CE01E9
:1016A00007960E94FE08CE010D960E94FE08CE010C
:1016B00043960E94FE081092630310926203A1CE2B
:1016C00068960FB6F894DEBF0FBECDBFDF91CF9105
:1016D0001F910F91FF90EF90DF90CF90BF90AF9050
:1016E0009F908F907F906F905F904F903F902F9042
:1016F00008951F920F920FB60F9211242F933F93CC
:101700004F935F936F937F938F939F93AF93BF9309
:10171000EF93FF9382EC93E00E945401FF91EF91CD
:10172000BF91AF919F918F917F916F915F914F91F9
:101730003F912F910F900FBE0F901F9018951F9201
:101740000F920FB60F9211242F938F939F93EF93C5
:10175000FF93E091D203F091D3038081E091D8030D
:10176000F091D90382FD1BC090818091DB038F5FD4
:101770008F732091DC03821741F0E091DB03F0E0EE
:10178000EE53FC4F958F8093DB03FF91EF919F9178
:101790008F912F910F900FBE0F901F901895808101
:1017A000F4CF1F920F920FB60F9211242F933F93F5
:1017B0008F939F93AF93BF938091BD039091BE038E
:1017C000A091BF03B091C0033091A60323E0230F83
:1017D0002D3758F50196A11DB11D2093A6038093C6
:1017E000BD039093BE03A093BF03B093C003809149
:1017F000A7039091A803A091A903B091AA03019611
:10180000A11DB11D8093A7039093A803A093A903E2
:10181000B093AA03BF91AF919F918F913F912F9168
:101820000F900FBE0F901F90189526E8230F029679
:10183000A11DB11DD2CF1F920F920FB60F9211248E
:101840002F933F934F935F936F937F938F939F93C8
:10185000AF93BF93EF93FF93E091BB03F091BC0371
:10186000309749F0A685B7858585968D91FF14C080
:101870009C918923A1F4FF91EF91BF91AF919F912A
:101880008F917F916F915F914F913F912F910F9029
:101890000FBE0F901F9018959C91892361F7A38923
:1018A000B4899C918589809589238C9386899789B1
:1018B0000197F1F7608D718DA685B785558538E064
:1018C00020E0CB010197F1F7822F90E09595879565
:1018D000282F4C91452309F02068315091F7868DCF
:1018E00081FD20958091BA0390E001968F7399272E
:1018F0003091B903381799F0A091BA03B0E0AA5912
:10190000BC4F2C938093BA03828D938D0197F1F78E
:10191000A389B4898C919589892B8C93ACCF868DC2
:101920008160868FF1CFE2ECF3E01382128288EEC1
:1019300093E0A0E0B0E084839583A683B7838CE135
:1019400091E09183808385EC90E09587848784EC97
:1019500090E09787868780EC90E0918B808B81EC7C
:1019600090E0938B828B82EC90E0958B848B86EC5D
:1019700090E0978B868B118E128E138E148E43E01F
:1019800062E082EA94E00E9460024BE06AE083E851
:1019900094E00E946002EBE6F4E0138212828EE291
:1019A00091E09183808384E084838FEF858385E059
:1019B000868386E0878387E0808788E0818789E067
:1019C00082871386148615861686178681E00E9404
:1019D000170568E371E085E694E00E948C0968E3EE
:1019E00071E08FE594E00C948C09CF93DF9300D0E5
:1019F00000D000D0CDB7DEB7789484B5826084BDC6
:101A000084B5816084BD85B5826085BD85B5816002
:101A100085BD80916E00816080936E001092810080
:101A2000809181008260809381008091810081603B
:101A300080938100809180008160809380008091FC
:101A4000B10084608093B1008091B0008160809388
:101A5000B00080917A00846080937A0080917A004F
:101A6000826080937A0080917A00816080937A000E
:101A700080917A00806880937A001092C10082EA97
:101A800094E00E94F203E091D203F091D30382E04C
:101A90008083E091CE03F091CF031082E091D003D8
:101AA000F091D1038FEC80831092DA03E091D6039A
:101AB000F091D70386E08083E091D403F091D503C1
:101AC000808180618083E091D403F091D50380818F
:101AD00088608083E091D403F091D5038081806891
:101AE0008083E091D403F091D50380818F7D808342
:101AF00082E00E94170560ED71E08BE694E00E94A1
:101B00008C080E94B8056BEE71E08BE694E00E94B1
:101B10008C0860ED77E080E090E00E94FC020E947B
:101B20000F0562EF71E08BE694E00E948C080E9442
:101B3000B8056FEF71E08BE694E00E948C0868EEC8
:101B400073E080E090E00E94FC026EE072E082ECC4
:101B500093E00E9489076FE172E0CE0101960E9436
:101B60008C0962E272E0CE0101960E94B107CE01BB
:101B700001960E94FE0865E272E0CE0101960E9485
:101B80008C0962E272E0CE0101960E94B107CE019B
:101B900001960E94FE086AE272E0CE0101960E9460
:101BA0008C0963E372E0CE0101960E94B107CE0179
:101BB00001960E94FE0869E372E0CE0101960E9440
:101BC0008C0962E272E0CE0101960E94B107CE015B
:101BD00001960E94FE0863E472E0CE0101960E9425
:101BE0008C0962E272E0CE0101960E94B107CE013B
:101BF00001960E94FE0865E572E082EC93E00E9487
:101C000089070E940F056EE672E08BE694E00E9461
:101C10008C080E94B80561E672E08BE694E00E94B1
:101C20008C0860ED77E080E090E00E94FC020E946A
:101C30000F056AE772E08BE694E00E948C080E9430
:101C4000B80568E872E08BE694E00E948C089AE0A0
:101C5000C92ED12C8FE00E94C502E090B703F0900E
:101C6000B803E80EF91EF092B803E092B70380E1E2
:101C70000E94C5020091B5031091B603080F191F09
:101C80001093B6030093B50381E10E94C502209131
:101C9000B3033091B403280F391F3093B40320935A
:101CA000B30381E0C81AD108A9F6EAE0F0E0C70161
:101CB000BF010E942B147B017093B8036093B7039C
:101CC000C801BF010E942B147093B6036093B50343
:101CD000C901BF010E942B147093B4036093B30336
:101CE000C7010E9427068091B5039091B6030E9418
:101CF00027068091B3039091B4030E94270668EEF3
:101D000073E080E090E00E94FC020E940F0566E90B
:101D100072E08BE694E00E948C080E94B80566EAA7
:101D200072E08BE694E00E948C0860ED77E080E042
:101D300090E00E94FC0283E894E00E94F2030E947B
:101D4000C8090E948E0860ED77E080E090E00E9474
:101D5000FC020E940F056DEA72E08BE694E00E949F
:101D60008C0868EE73E080E090E00E94FC020E9424
:101D70000F056AEB72E08BE694E00E948C0867EC3A
:101D800072E082EC93E00E94890780E0A82E80E058
:101D9000B82E8FE00E94C5027C0180E10E94C5023E
:101DA0008C0181E10E94C502C090B703D090B803B6
:101DB000CE18DF08E090B503F090B603E01AF10A00
:101DC0000091B3031091B403081B190B66ED72E088
:101DD00082EC93E00E948C08C6010E94270669ED00
:101DE00072E082EC93E00E948C08C7010E942706F3
:101DF0006CED72E082EC93E00E948C08C8010E94B6
:101E0000270682E3C80ED11C85E6C816D10468F403
:101E100082E3E80EF11C85E6E816F10430F40E5C6E
:101E20001F4F0536110508F4E7C00E94C8090E943B
:101E30008E080E940F056FED72E08BE694E00E9421
:101E40008C086CEE72E082EC93E00E9489076FE1EF
:101E500072E082EA94E00E94890764EF71E080E01A
:101E600090E00E94FC020E945F0669E372E082EA51
:101E700094E00E94890764EF71E080E090E00E94A6
:101E8000FC020E945F0668EF72E082EA94E00E9422
:101E90008C0862E282EA94E00E94C10061E073E093
:101EA00082EA94E00E948C0862E282EA94E00E9456
:101EB000C10066E371E082EA94E00E94CC0564EF21
:101EC00071E080E090E00E94FC020E945F0665E500
:101ED00071E082EA94E00E948C084091AF03509137
:101EE000B0036091B1037091B20382EA94E00E9462
:101EF000740764EF71E080E090E00E94FC020E94B1
:101F00005F066CE073E082EA94E00E948C084091E6
:101F1000AB035091AC036091AD037091AE0382EAC4
:101F200094E00E94740764EF71E080E090E00E940A
:101F3000FC020E945F0668E173E082EA94E00E947E
:101F40008C0865E674E082EA94E00E94C80060E2D2
:101F500073E082EA94E00E94890764EF71E080E018
:101F600090E00E94FC020E945F0666E273E082EA53
:101F700094E00E948C084091AF035091B0036091AF
:101F8000B1037091B20326E082EA94E00E948E06CB
:101F900066E573E082EA94E00E948C084091AB030E
:101FA0005091AC036091AD037091AE0326E082EADC
:101FB00094E00E948E066AE182EA94E00E9449035E
:101FC00060ED77E080E090E00E94FC020E945F06F6
:101FD00068E573E082EC93E00E94890760ED77E0AA
:101FE00080E090E00E94FC020E940F056AEB72E024
:101FF0008BE694E00E948C08A114B10409F4C9CEC8
:102000000E944001882309F4C4CE0E940000C1CE82
:10201000CF93DF938FE594E00E94FE0885E694E07D
:102020000E94FE08CAE0D1E0D0938404C0938304E8
:1020300083E894E00E94DC03D093A304C093A2043D
:1020400082EA94E0DF91CF910C94DC036627772736
:102050000C942A10B0E0A0E0E0E3F0E10C94D3127D
:102060005C017B016115710519F0DB018D939C9377
:1020700085010F5F1F4FF501D0818D2F90E00E94E9
:102080007A116C01892BB9F5DD32B9F50F5F1F4F5D
:10209000D5011196DC91C1E05801F1E0AF1AB10809
:1020A00043E050E060E770E0C5010E948311892B96
:1020B00069F5680182E0C80ED11C45E050E06BE68E
:1020C00070E0C6010E948311892B21F4680197E01A
:1020D000C90ED11CE114F10419F0D701CD92DC92A4
:1020E00060E070E080E89FEFC111FFC060E070E049
:1020F00080E89FE7FAC05801BBCFDB3229F48501A5
:102100000E5F1F4FF501D181C0E0C6CF43E050E024
:1021100068E670E0C5010E948311892BE9F0F8019F
:1021200010E000E020E030E0A9015F01B0ED8B2E6F
:102130008D0E89E08815C8F19C2E689491F88C2F3B
:102140008870C2FF16C0811102C00F5F1F4F319609
:10215000D501DC91C92DE9CFE114F10429F00E5F1E
:102160001F4FF7011183008360E070E080EC9FE770
:10217000BCC0882311F001501109A5E0B0E00E9415
:10218000C2129B01AC01220F331F441F551F280DA3
:10219000311D411D511D283999E93907490799E138
:1021A0005907A8F2C6609C2ED2CFAEEF8A1206C0A5
:1021B000C3FD3CC09C2E689493F8C9CFDF7DD53415
:1021C000A9F580818D3239F4C061DF0112968181D9
:1021D00062E070E006C0DF018B32C1F3119661E06E
:1021E00070E080535D01A61AB70A8A30F8F4E0E87F
:1021F000CE16ECE0DE065CF4B601660F771F660FC4
:10220000771FC60ED71ECC0CDD1CC80ED11C5D017D
:10221000FFEFAF1ABF0A8C9180538A30A8F1C4FF38
:1022200003C0D194C194D1080C0D1D1DC1FF09C07C
:10223000E114F10431F081E0A81AB108D701AD92A0
:10224000BC92CA01B9010E94A011C370C33009F445
:1022500090584B015C0120E030E0A9010E949B11E5
:10226000882309F440C0CFE9D0E017FF05C01195DD
:1022700001951109C7E8D0E06E01B8E1CB1AD10889
:1022800080E2E82EF12C0FC0D501B1CFFE012591DF
:102290003591459154910E191F09C501B4010E9451
:1022A00001124B015C01D501C4010E151F0574F725
:1022B0002497F594E794CC16DD06A9F78A2F880FAA
:1022C0008B2F881F8F3F49F020E030E0A901C50126
:1022D000B4010E949B11811106C082E290E09093AC
:1022E000C2048093C104C501B401CDB7DEB7ECE0F0
:1022F0000C94EF1291110C946E12803219F08950E7
:102300008550C8F70895FB01DC014150504088F02A
:102310008D9181341CF08B350CF4805E65916134B5
:102320001CF06B350CF4605E861B611171F3990B28
:102330000895881BFCCF0E94DD1108F481E0089508
:10234000E89409C097FB3EF490958095709561954F
:102350007F4F8F4F9F4F9923A9F0F92F96E9BB2705
:102360009395F695879577956795B795F111F8CF81
:10237000FAF4BB0F11F460FF1BC06F5F7F4F8F4FEC
:102380009F4F16C0882311F096E911C0772321F0E2
:102390009EE8872F762F05C0662371F096E8862F7A
:1023A00070E060E02AF09A95660F771F881FDAF7D1
:1023B000880F9695879597F90895990F0008550FFE
:1023C000AA0BE0E8FEEF16161706E807F907C0F0BB
:1023D00012161306E407F50798F0621B730B840BC3
:1023E000950B39F40A2661F0232B242B252B21F49D
:1023F00008950A2609F4A140A6958FEF811D811D3D
:1024000008950E9414120C9488120E947A1238F0D7
:102410000E94811220F0952311F00C9471120C94FB
:10242000771211240C94BC120E94991270F3959F9C
:10243000C1F3950F50E0551F629FF001729FBB27BB
:10244000F00DB11D639FAA27F00DB11DAA1F649F57
:102450006627B00DA11D661F829F2227B00DA11D0A
:10246000621F739FB00DA11D621F839FA00D611D90
:10247000221F749F3327A00D611D231F849F600DB1
:10248000211D822F762F6A2F11249F5750409AF0DA
:10249000F1F088234AF0EE0FFF1FBB1F661F771F66
:1024A000881F91505040A9F79E3F510580F00C9431
:1024B00071120C94BC125F3FE4F3983ED4F38695FE
:1024C00077956795B795F795E7959F5FC1F7FE2BD1
:1024D000880F911D9695879597F9089599278827D4
:1024E000089597F99F6780E870E060E008959FEF96
:1024F00080EC089500240A9416161706180609069B
:10250000089500240A941216130614060506089569
:10251000092E0394000C11F4882352F0BB0F40F4F1
:10252000BF2B11F460FF04C06F5F7F4F8F4F9F4F31
:10253000089557FD9058440F551F59F05F3F71F0B3
:102540004795880F97FB991F61F09F3F79F087951A
:102550000895121613061406551FF2CF4695F1DFA3
:1025600008C0161617061806991FF1CF8695710533
:10257000610508940895E894BB2766277727CB0167
:1025800097F908950E940413A59F900DB49F900D94
:10259000A49F800D911D112408952F923F924F9278
:1025A0005F926F927F928F929F92AF92BF92CF92E3
:1025B000DF92EF92FF920F931F93CF93DF93CDB7EC
:1025C000DEB7CA1BDB0B0FB6F894DEBF0FBECDBF64
:1025D00009942A88398848885F846E847D848C8435
:1025E0009B84AA84B984C884DF80EE80FD800C813E
:1025F0001B81AA81B981CE0FD11D0FB6F894DEBF21
:102600000FBECDBFED010895A29FB001B39FC001E1
:10261000A39F700D811D1124911DB29F700D811D0E
:102620001124911D08955058BB27AA270E942B13EF
:102630000C9488120E947A1238F00E94811220F0C5
:1026400039F49F3F19F426F40C9477120EF4E095B8
:10265000E7FB0C947112E92F0E94991258F3BA17F4
:10266000620773078407950720F079F4A6F50C94A8
:10267000BB120EF4E0950B2EBA2FA02D0B01B90161
:1026800090010C01CA01A0011124FF27591B99F0E8
:10269000593F50F4503E68F11A16F040A22F232FF4
:1026A000342F4427585FF3CF469537952795A79544
:1026B000F0405395C9F77EF41F16BA0B620B730BEB
:1026C000840BBAF09150A1F0FF0FBB1F661F771F5C
:1026D000881FC2F70EC0BA0F621F731F841F48F411
:1026E000879577956795B795F7959E3F08F0B0CF9A
:1026F0009395880F08F09927EE0F97958795089581
:102700000E9494130C9488120E94811258F00E9427
:102710007A1240F029F45F3F29F00C9471125111A4
:102720000C94BC120C9477120E94991268F39923AE
:10273000B1F3552391F3951B550BBB27AA276217BD
:102740007307840738F09F5F5F4F220F331F441FCA
:10275000AA1FA9F335D00E2E3AF0E0E832D09150FE
:102760005040E695001CCAF72BD0FE2F29D0660FEB
:10277000771F881FBB1F261737074807AB07B0E82E
:1027800009F0BB0B802DBF01FF2793585F4F3AF034
:102790009E3F510578F00C9471120C94BC125F3F6F
:1027A000E4F3983ED4F3869577956795B795F795BA
:1027B0009F5FC9F7880F911D9695879597F90895A2
:1027C000E1E0660F771F881FBB1F6217730784073E
:1027D000BA0720F0621B730B840BBA0BEE1F88F74D
:1027E000E09508950E94A11288F09F5798F0B92FA4
:1027F0009927B751B0F0E1F0660F771F881F991F36
:102800001AF0BA95C9F714C0B13091F00E94BB120A
:10281000B1E008950C94BB12672F782F8827B85F1A
:1028200039F0B93FCCF3869577956795B395D9F78D
:102830003EF490958095709561957F4F8F4F9F4F97
:1028400008950E94DD1108F48FEF08950E94DD11B4
:10285000880B990B089597FB072E16F4009407D068
:1028600077FD09D00E94611407FC05D03EF49095D5
:1028700081959F4F0895709561957F4F0895A1E2CE
:102880001A2EAA1BBB1BFD010DC0AA1FBB1FEE1FEA
:10289000FF1FA217B307E407F50720F0A21BB30B35
:1028A000E40BF50B661F771F881F991F1A9469F7B1
:1028B00060957095809590959B01AC01BD01CF010D
:1028C0000895AA1BBB1B51E107C0AA1FBB1FA61777
:1028D000B70710F0A61BB70B881F991F5A95A9F7C9
:1028E00080959095BC01CD010895EE0FFF1F0590D6
:1028F000F491E02D09940F931F93CF93DF938230CF
:10290000910510F482E090E0E091C504F091C604D6
:1029100030E020E0B0E0A0E0309799F421153105D7
:1029200009F44AC0281B390B24303105D8F58A81B7
:102930009B816115710589F1FB0193838283FE01FF
:1029400011C0408151810281138148175907E0F07D
:102950004817590799F4109761F012960C93129743
:1029600013961C933296CF01DF91CF911F910F9157
:1029700008950093C5041093C604F4CF21153105C2
:1029800051F04217530738F0A901DB019A01BD014C
:10299000DF01F801C1CFEF01F9CF9093C604809316
:1029A000C504CDCFFE01E20FF31F81939193225016
:1029B000310939832883D7CF2091C3043091C404CF
:1029C000232B41F420910201309103013093C40480
:1029D0002093C3042091000130910101211531059C
:1029E00041F42DB73EB74091040150910501241BDD
:1029F000350BE091C304F091C404E217F307A0F48F
:102A00002E1B3F0B2817390778F0AC014E5F5F4F44
:102A10002417350748F04E0F5F1F5093C4044093AE
:102A2000C304819391939FCFF0E0E0E09CCFCF93DC
:102A3000DF930097E9F0FC01329713821282A09194
:102A4000C504B091C604ED0130E020E01097A1F478
:102A500020813181820F931F2091C3043091C404DF
:102A60002817390709F061C0F093C404E093C30448
:102A7000DF91CF910895EA01CE17DF07E8F54A818B
:102A80005B819E0141155105B1F7E901FB83EA83A2
:102A900049915991C40FD51FEC17FD0761F480814E
:102AA00091810296840F951FE90199838883828121
:102AB00093819B838A83F0E0E0E012968D919C9154
:102AC00013970097B9F52D913C911197CD0102967E
:102AD000820F931F2091C3043091C4042817390733
:102AE00039F6309751F51092C6041092C504B09390
:102AF000C404A093C304BCCFD383C283408151815B
:102B0000840F951FC817D90761F44E5F5F4F888106
:102B10009981480F591F518340838A819B819383F8
:102B200082832115310509F0B0CFF093C604E093FC
:102B3000C5049ECFFD01DC01C0CF13821282D7CF26
:102B4000B0E0A0E0E6EAF5E10C94CF128C0100972A
:102B500051F4CB010E947B148C01C801CDB7DEB7C4
:102B6000E0E10C94EB12FC01E60FF71F9C012250F0
:102B70003109E217F30708F49DC0D901CD91DC912A
:102B80001197C617D70798F0C530D10530F3CE019D
:102B900004978617970708F3C61BD70B2297C19394
:102BA000D1936D937C93CF010E941715D6CF5B0113
:102BB000AC1ABD0A4C018C0E9D1EA091C504B091AB
:102BC000C604512C412CF12CE12C109731F5809149
:102BD000C3049091C4048815990509F05CC0461699
:102BE000570608F058C080910001909101010097AC
:102BF00041F48DB79EB74091040150910501841BAB
:102C0000950BE817F90708F055C0F093C404E0935A
:102C1000C304F90171836083A0CF8D919C911197BA
:102C200012966C90129713967C901397A815B9057D
:102C300059F56C0142E0C40ED11CCA14DB0420F12A
:102C4000AC014A195B09DA011296159780F062828D
:102C5000738251834083D9016D937C93E114F10415
:102C600071F0D7011396FC93EE93129776CF2296CC
:102C70008C0F9D1FF90191838083F301EFCFF093B7
:102C8000C604E093C50469CF4816590608F42C0120
:102C90007D01D3019ACFCB010E947B147C01009768
:102CA00049F0AE01B8010E945D16C8010E941715D7
:102CB000870153CF10E000E050CFFB01DC0102C0E0
:102CC00001900D9241505040D8F70895FB01DC016E
:102CD00001900D920020E1F7089510E0C0E8D0E0E7
:102CE00004C0FE010E9475142196C138D107C9F7AE
:042CF000F894FFCF86
:102CF4000000C7048000000000004903D6007004EF
:102D04004803A503BB033003000000007601D6008E
:102D14000301C30134011201260100000000C605AD
:102D2400D60070042F030D0A006E616E00696E6692
:102D3400006F7666004572726F72004C61743A00DF
:102D44004C6F673A004C617469747564653A004C61
:102D54006F6E6769747564653A00537065656420C5
:102D64006F66207468652076656869636C65286998
:102D74006E206B6E6F7473293D005370656564201B
:102D84006F66207468652076656869636C65284B96
:102D94006E6F7473293A0047657474696E672047CF
:102DA4005053204461746100506C65617365205711
:102DB4006169742E2E2E2E2E00244750524D43004E
:102DC4004265204361726566756C6C2C416363696E
:102DD40064656E7420416C65727400537973746514
:102DE4006D00496E697469616C697A696E67005037
:102DF4006C6561736520576169742E2E2E00496ECF
:102E0400697469616C697A696E672E2E2E2E004191
:102E140054004F4B00415445310041542B43504919
:102E24004E3F0052454144590041542B434D4746BF
:102E34003D310041542B434E4D493D322C322C3010
:102E44002C302C3000496E697469616C697A656450
:102E5400205375636365737366756C6C7900496E92
:102E6400697469616C697A65640043616C6C696258
:102E7400726174696E672000416363656C65726F8B
:102E84006D657465720057616974696E6720466F79
:102E94007220475053005369676E616C004750536A
:102EA4002069732052656164790053797374656D88
:102EB4002052656164790053797374656D2052659D
:102EC4006164792E2E00783D00793D007A3D0053EF
:102ED400656E64696E6720534D53200053656E64BC
:102EE400696E6720534D530041542B434D47533D66
:102EF400003939343434373639313200206C6F6E4E
:102F04006769747564653A002053706565643A00B6
:102F14004B6E6F747300687474703A2F2F6D617008
:102F2400732E676F6F676C652E636F6D2F6D6170A5
:102F3400733F267A3D3135266D72743D797026745F
:102F44003D6B26713D002B00534D532053656E7429
:022F540000007B
:00000001FF
